{
  "_format": "hh-sol-artifact-1",
  "contractName": "Factory",
  "sourceName": "contracts/Factory.sol",
  "abi": [
    {
      "inputs": [],
      "stateMutability": "nonpayable",
      "type": "constructor"
    },
    {
      "inputs": [
        {
          "internalType": "uint256",
          "name": "_pollIndex",
          "type": "uint256"
        },
        {
          "internalType": "uint256",
          "name": "_optionIndex",
          "type": "uint256"
        }
      ],
      "name": "castVote",
      "outputs": [],
      "stateMutability": "nonpayable",
      "type": "function"
    },
    {
      "inputs": [
        {
          "internalType": "string",
          "name": "_proposal",
          "type": "string"
        },
        {
          "internalType": "string",
          "name": "_description",
          "type": "string"
        },
        {
          "internalType": "uint256",
          "name": "_duration",
          "type": "uint256"
        }
      ],
      "name": "createPoll",
      "outputs": [],
      "stateMutability": "nonpayable",
      "type": "function"
    },
    {
      "inputs": [
        {
          "internalType": "uint256",
          "name": "_pollIndex",
          "type": "uint256"
        }
      ],
      "name": "endVote",
      "outputs": [],
      "stateMutability": "nonpayable",
      "type": "function"
    },
    {
      "inputs": [],
      "name": "getCurrentPollId",
      "outputs": [
        {
          "internalType": "uint256",
          "name": "",
          "type": "uint256"
        }
      ],
      "stateMutability": "view",
      "type": "function"
    },
    {
      "inputs": [
        {
          "internalType": "uint256",
          "name": "_pollIndex",
          "type": "uint256"
        }
      ],
      "name": "getPollData",
      "outputs": [
        {
          "internalType": "string",
          "name": "",
          "type": "string"
        },
        {
          "internalType": "string",
          "name": "",
          "type": "string"
        },
        {
          "internalType": "uint256",
          "name": "",
          "type": "uint256"
        },
        {
          "internalType": "uint256",
          "name": "",
          "type": "uint256"
        },
        {
          "internalType": "uint256",
          "name": "",
          "type": "uint256"
        },
        {
          "internalType": "uint256",
          "name": "",
          "type": "uint256"
        },
        {
          "internalType": "bool",
          "name": "",
          "type": "bool"
        }
      ],
      "stateMutability": "view",
      "type": "function"
    }
  ],
  "bytecode": "0x60806040526000805534801561001457600080fd5b50610bce806100246000396000f3fe608060405234801561001057600080fd5b50600436106100575760003560e01c80632c0a3f891461005c5780635dbb806314610078578063865df0ad14610094578063bc215a8e146100b0578063d292ce0e146100e6575b600080fd5b610076600480360381019061007191906106e1565b610104565b005b610092600480360381019061008d9190610867565b6101e6565b005b6100ae60048036038101906100a991906108f2565b610348565b005b6100ca60048036038101906100c591906108f2565b610379565b6040516100dd97969594939291906109d1565b60405180910390f35b6100ee610561565b6040516100fb9190610a4e565b60405180910390f35b60016000838152602001908152602001600020600701339080600181540180825580915050600190039060005260206000200160009091909190916101000a81548173ffffffffffffffffffffffffffffffffffffffff021916908373ffffffffffffffffffffffffffffffffffffffff16021790555060008114156101b5576001600083815260200190815260200160002060030160008154809291906101ab90610a98565b91905055506101e2565b6001600083815260200190815260200160002060020160008154809291906101dc90610a98565b91905055505b5050565b60006040518061010001604052808581526020018481526020016000815260200160008152602001600015158152602001428152602001838152602001600067ffffffffffffffff81111561023e5761023d61073c565b5b60405190808252806020026020018201604052801561026c5781602001602082028036833780820191505090505b50815250905080600160008054815260200190815260200160002060008201518160000190805190602001906102a392919061056a565b5060208201518160010190805190602001906102c092919061056a565b50604082015181600201556060820151816003015560808201518160040160006101000a81548160ff02191690831515021790555060a0820151816005015560c0820151816006015560e08201518160070190805190602001906103259291906105f0565b50905050600160008082825461033b9190610ae1565b9250508190555050505050565b600180600083815260200190815260200160002060040160006101000a81548160ff02191690831515021790555050565b606080600080600080600060016000898152602001908152602001600020600001600160008a8152602001908152602001600020600101600160008b815260200190815260200160002060020154600160008c815260200190815260200160002060030154600160008d815260200190815260200160002060050154600160008e815260200190815260200160002060060154600160008f815260200190815260200160002060040160009054906101000a900460ff1686805461043c90610b66565b80601f016020809104026020016040519081016040528092919081815260200182805461046890610b66565b80156104b55780601f1061048a576101008083540402835291602001916104b5565b820191906000526020600020905b81548152906001019060200180831161049857829003601f168201915b505050505096508580546104c890610b66565b80601f01602080910402602001604051908101604052809291908181526020018280546104f490610b66565b80156105415780601f1061051657610100808354040283529160200191610541565b820191906000526020600020905b81548152906001019060200180831161052457829003601f168201915b505050505095509650965096509650965096509650919395979092949650565b60008054905090565b82805461057690610b66565b90600052602060002090601f01602090048101928261059857600085556105df565b82601f106105b157805160ff19168380011785556105df565b828001600101855582156105df579182015b828111156105de5782518255916020019190600101906105c3565b5b5090506105ec919061067a565b5090565b828054828255906000526020600020908101928215610669579160200282015b828111156106685782518260006101000a81548173ffffffffffffffffffffffffffffffffffffffff021916908373ffffffffffffffffffffffffffffffffffffffff16021790555091602001919060010190610610565b5b509050610676919061067a565b5090565b5b8082111561069357600081600090555060010161067b565b5090565b6000604051905090565b600080fd5b600080fd5b6000819050919050565b6106be816106ab565b81146106c957600080fd5b50565b6000813590506106db816106b5565b92915050565b600080604083850312156106f8576106f76106a1565b5b6000610706858286016106cc565b9250506020610717858286016106cc565b9150509250929050565b600080fd5b600080fd5b6000601f19601f8301169050919050565b7f4e487b7100000000000000000000000000000000000000000000000000000000600052604160045260246000fd5b6107748261072b565b810181811067ffffffffffffffff821117156107935761079261073c565b5b80604052505050565b60006107a6610697565b90506107b2828261076b565b919050565b600067ffffffffffffffff8211156107d2576107d161073c565b5b6107db8261072b565b9050602081019050919050565b82818337600083830152505050565b600061080a610805846107b7565b61079c565b90508281526020810184848401111561082657610825610726565b5b6108318482856107e8565b509392505050565b600082601f83011261084e5761084d610721565b5b813561085e8482602086016107f7565b91505092915050565b6000806000606084860312156108805761087f6106a1565b5b600084013567ffffffffffffffff81111561089e5761089d6106a6565b5b6108aa86828701610839565b935050602084013567ffffffffffffffff8111156108cb576108ca6106a6565b5b6108d786828701610839565b92505060406108e8868287016106cc565b9150509250925092565b600060208284031215610908576109076106a1565b5b6000610916848285016106cc565b91505092915050565b600081519050919050565b600082825260208201905092915050565b60005b8381101561095957808201518184015260208101905061093e565b83811115610968576000848401525b50505050565b60006109798261091f565b610983818561092a565b935061099381856020860161093b565b61099c8161072b565b840191505092915050565b6109b0816106ab565b82525050565b60008115159050919050565b6109cb816109b6565b82525050565b600060e08201905081810360008301526109eb818a61096e565b905081810360208301526109ff818961096e565b9050610a0e60408301886109a7565b610a1b60608301876109a7565b610a2860808301866109a7565b610a3560a08301856109a7565b610a4260c08301846109c2565b98975050505050505050565b6000602082019050610a6360008301846109a7565b92915050565b7f4e487b7100000000000000000000000000000000000000000000000000000000600052601160045260246000fd5b6000610aa3826106ab565b91507fffffffffffffffffffffffffffffffffffffffffffffffffffffffffffffffff821415610ad657610ad5610a69565b5b600182019050919050565b6000610aec826106ab565b9150610af7836106ab565b9250827fffffffffffffffffffffffffffffffffffffffffffffffffffffffffffffffff03821115610b2c57610b2b610a69565b5b828201905092915050565b7f4e487b7100000000000000000000000000000000000000000000000000000000600052602260045260246000fd5b60006002820490506001821680610b7e57607f821691505b60208210811415610b9257610b91610b37565b5b5091905056fea2646970667358221220ae8c2aa3f811838ac1d156af28a5378e7e658e2b8fdce0f66aa28a6c6e92c16064736f6c63430008090033",
  "linkReferences": {},
  "deployedLinkReferences": {}
}